A0015664382604013A0                                                                                                                                                                                                                                                 
A011566438202604DLOCAL MOROCCO SARLAU                                                           RUE SOUMAYA RESIDENCE SHEHRAZADE 3 ETAGE 5 N 22  PALMIERS                                                               CASABLANCA          20340 482026042620260510
A021566438202604100748053AL KUHAIMI                    HUSSA                         00000000000000000000                                                                                                                                                           
A021566438202604123798714ATAALLAH                      CHADY                         00000000000000000000                                                                                                                                                           
A021566438202604168550196HIMMI                         IHSANE                        00000000000000000000                                                                                                                                                           
A021566438202604175385594ZAHIDI                        AYOUB                         00000000000000000000                                                                                                                                                           
A021566438202604182073517EL ALAMI EL IDRISSI           IKRAM                         00000000000000000000                                                                                                                                                           
A031566438202604000005000000000000000000000000000000000000000000000000750556074                                                                                                                                                                                     
